{
    "contractName": "Propinas",
    "abi": [
        {
            "inputs": [],
            "stateMutability": "payable",
            "type": "constructor"
        },
        {
            "inputs": [
                {
                    "internalType": "address",
                    "name": "",
                    "type": "address"
                }
            ],
            "name": "balanceOf",
            "outputs": [
                {
                    "internalType": "uint256",
                    "name": "",
                    "type": "uint256"
                }
            ],
            "stateMutability": "view",
            "type": "function"
        },
        {
            "inputs": [],
            "name": "get",
            "outputs": [],
            "stateMutability": "nonpayable",
            "type": "function"
        },
        {
            "inputs": [
                {
                    "internalType": "address",
                    "name": "_address",
                    "type": "address"
                }
            ],
            "name": "getBalanceOf",
            "outputs": [
                {
                    "internalType": "uint256",
                    "name": "",
                    "type": "uint256"
                }
            ],
            "stateMutability": "view",
            "type": "function"
        },
        {
            "inputs": [
                {
                    "internalType": "address",
                    "name": "_address",
                    "type": "address"
                }
            ],
            "name": "sendTip",
            "outputs": [],
            "stateMutability": "payable",
            "type": "function"
        },
        {
            "stateMutability": "payable",
            "type": "receive"
        }
    ],
    "bytecode": "6080604052610016336001600160e01b0361001b16565b61003a565b6001600160a01b03166000908152602081905260409020805434019055565b610238806100496000396000f3fe6080604052600436106100435760003560e01c80636d4ce63c1461006457806370a082311461007b5780639b96eece146100c0578063a4e81be0146100f35761005f565b3661005f57336000908152602081905260409020805434019055005b600080fd5b34801561007057600080fd5b50610079610119565b005b34801561008757600080fd5b506100ae6004803603602081101561009e57600080fd5b50356001600160a01b03166101b6565b60408051918252519081900360200190f35b3480156100cc57600080fd5b506100ae600480360360208110156100e357600080fd5b50356001600160a01b03166101c8565b6100796004803603602081101561010957600080fd5b50356001600160a01b03166101e3565b3360009081526020819052604090205461016c576040805162461bcd60e51b815260206004820152600f60248201526e42616c616e6365206973207a65726f60881b604482015290519081900360640190fd5b3360008181526020819052604080822054905181156108fc0292818181858888f193505050501580156101a3573d6000803e3d6000fd5b5033600090815260208190526040812055565b60006020819052908152604090205481565b6001600160a01b031660009081526020819052604090205490565b6001600160a01b0316600090815260208190526040902080543401905556fea264697066735822122062f60a156313260712afcf908da5ab761b5f6bcf5244e522d377680ac29047ba64736f6c63430006040033",
    "sourcePath": "/home/loki/dev/blockchain/tandil/reentrancy-attack-example/contracts/Propinas.sol",
    "compiler": {
        "name": "solc",
        "version": "0.6.4+commit.1dca32f3"
    },
    "functionHashes": {
        "balanceOf(address)": "70a08231",
        "get()": "6d4ce63c",
        "getBalanceOf(address)": "9b96eece",
        "sendTip(address)": "a4e81be0"
    },
    "gasEstimates": {
        "creation": {
            "codeDepositCost": "113600",
            "executionCost": "infinite",
            "totalCost": "infinite"
        },
        "external": {
            "balanceOf(address)": "1127",
            "get()": "infinite",
            "getBalanceOf(address)": "1167",
            "sendTip(address)": "21125"
        }
    }
}